{
  "_format": "hh-sol-artifact-1",
  "contractName": "Vote",
  "sourceName": "contracts/Vote.sol",
  "abi": [
    {
      "inputs": [
        {
          "internalType": "string[]",
          "name": "_senators",
          "type": "string[]"
        }
      ],
      "stateMutability": "nonpayable",
      "type": "constructor"
    },
    {
      "inputs": [
        {
          "internalType": "uint256",
          "name": "",
          "type": "uint256"
        }
      ],
      "name": "NumOfVote",
      "outputs": [
        {
          "internalType": "uint256",
          "name": "",
          "type": "uint256"
        }
      ],
      "stateMutability": "view",
      "type": "function"
    },
    {
      "inputs": [],
      "name": "Owner",
      "outputs": [
        {
          "internalType": "address",
          "name": "",
          "type": "address"
        }
      ],
      "stateMutability": "view",
      "type": "function"
    },
    {
      "inputs": [
        {
          "internalType": "address",
          "name": "",
          "type": "address"
        }
      ],
      "name": "PERSONS",
      "outputs": [
        {
          "internalType": "bool",
          "name": "Voted",
          "type": "bool"
        },
        {
          "internalType": "bool",
          "name": "isVoter",
          "type": "bool"
        }
      ],
      "stateMutability": "view",
      "type": "function"
    },
    {
      "inputs": [
        {
          "internalType": "uint256",
          "name": "_index",
          "type": "uint256"
        }
      ],
      "name": "VoteToSenator",
      "outputs": [],
      "stateMutability": "nonpayable",
      "type": "function"
    },
    {
      "inputs": [],
      "name": "Winner",
      "outputs": [
        {
          "internalType": "string",
          "name": "",
          "type": "string"
        }
      ],
      "stateMutability": "view",
      "type": "function"
    },
    {
      "inputs": [
        {
          "internalType": "address",
          "name": "_Address",
          "type": "address"
        }
      ],
      "name": "chooseVoters",
      "outputs": [],
      "stateMutability": "nonpayable",
      "type": "function"
    },
    {
      "inputs": [],
      "name": "numberOfSenators",
      "outputs": [
        {
          "internalType": "uint256",
          "name": "",
          "type": "uint256"
        }
      ],
      "stateMutability": "view",
      "type": "function"
    },
    {
      "inputs": [],
      "name": "numberOfVoters",
      "outputs": [
        {
          "internalType": "uint256",
          "name": "",
          "type": "uint256"
        }
      ],
      "stateMutability": "view",
      "type": "function"
    },
    {
      "inputs": [
        {
          "internalType": "uint256",
          "name": "",
          "type": "uint256"
        }
      ],
      "name": "senators",
      "outputs": [
        {
          "internalType": "string",
          "name": "",
          "type": "string"
        }
      ],
      "stateMutability": "view",
      "type": "function"
    },
    {
      "inputs": [
        {
          "internalType": "uint256",
          "name": "",
          "type": "uint256"
        }
      ],
      "name": "voters",
      "outputs": [
        {
          "internalType": "bool",
          "name": "Voted",
          "type": "bool"
        },
        {
          "internalType": "bool",
          "name": "isVoter",
          "type": "bool"
        }
      ],
      "stateMutability": "view",
      "type": "function"
    }
  ],
  "bytecode": "0x60806040523480156200001157600080fd5b50604051620015e9380380620015e9833981810160405281019062000037919062000386565b33600160006101000a81548173ffffffffffffffffffffffffffffffffffffffff021916908373ffffffffffffffffffffffffffffffffffffffff16021790555060005b8151811015620000ef5760008282815181106200009d576200009c620003d7565b5b6020026020010151908060018154018082558091505060019003906000526020600020016000909190919091509081620000d8919062000651565b508080620000e69062000767565b9150506200007b565b5050620007b4565b6000604051905090565b600080fd5b600080fd5b600080fd5b6000601f19601f8301169050919050565b7f4e487b7100000000000000000000000000000000000000000000000000000000600052604160045260246000fd5b6200015b8262000110565b810181811067ffffffffffffffff821117156200017d576200017c62000121565b5b80604052505050565b600062000192620000f7565b9050620001a0828262000150565b919050565b600067ffffffffffffffff821115620001c357620001c262000121565b5b602082029050602081019050919050565b600080fd5b600080fd5b600067ffffffffffffffff821115620001fc57620001fb62000121565b5b620002078262000110565b9050602081019050919050565b60005b838110156200023457808201518184015260208101905062000217565b60008484015250505050565b6000620002576200025184620001de565b62000186565b905082815260208101848484011115620002765762000275620001d9565b5b6200028384828562000214565b509392505050565b600082601f830112620002a357620002a26200010b565b5b8151620002b584826020860162000240565b91505092915050565b6000620002d5620002cf84620001a5565b62000186565b90508083825260208201905060208402830185811115620002fb57620002fa620001d4565b5b835b818110156200034957805167ffffffffffffffff8111156200032457620003236200010b565b5b8086016200033389826200028b565b85526020850194505050602081019050620002fd565b5050509392505050565b600082601f8301126200036b576200036a6200010b565b5b81516200037d848260208601620002be565b91505092915050565b6000602082840312156200039f576200039e62000101565b5b600082015167ffffffffffffffff811115620003c057620003bf62000106565b5b620003ce8482850162000353565b91505092915050565b7f4e487b7100000000000000000000000000000000000000000000000000000000600052603260045260246000fd5b600081519050919050565b7f4e487b7100000000000000000000000000000000000000000000000000000000600052602260045260246000fd5b600060028204905060018216806200045957607f821691505b6020821081036200046f576200046e62000411565b5b50919050565b60008190508160005260206000209050919050565b60006020601f8301049050919050565b600082821b905092915050565b600060088302620004d97fffffffffffffffffffffffffffffffffffffffffffffffffffffffffffffffff826200049a565b620004e586836200049a565b95508019841693508086168417925050509392505050565b6000819050919050565b6000819050919050565b6000620005326200052c6200052684620004fd565b62000507565b620004fd565b9050919050565b6000819050919050565b6200054e8362000511565b620005666200055d8262000539565b848454620004a7565b825550505050565b600090565b6200057d6200056e565b6200058a81848462000543565b505050565b5b81811015620005b257620005a660008262000573565b60018101905062000590565b5050565b601f8211156200060157620005cb8162000475565b620005d6846200048a565b81016020851015620005e6578190505b620005fe620005f5856200048a565b8301826200058f565b50505b505050565b600082821c905092915050565b6000620006266000198460080262000606565b1980831691505092915050565b600062000641838362000613565b9150826002028217905092915050565b6200065c8262000406565b67ffffffffffffffff81111562000678576200067762000121565b5b62000684825462000440565b62000691828285620005b6565b600060209050601f831160018114620006c95760008415620006b4578287015190505b620006c0858262000633565b86555062000730565b601f198416620006d98662000475565b60005b828110156200070357848901518255600182019150602085019450602081019050620006dc565b868310156200072357848901516200071f601f89168262000613565b8355505b6001600288020188555050505b505050505050565b7f4e487b7100000000000000000000000000000000000000000000000000000000600052601160045260246000fd5b60006200077482620004fd565b91507fffffffffffffffffffffffffffffffffffffffffffffffffffffffffffffffff8203620007a957620007a862000738565b5b600182019050919050565b610e2580620007c46000396000f3fe608060405234801561001057600080fd5b506004361061009e5760003560e01c80639bcc3361116100665780639bcc336114610159578063b2b98ed214610177578063b4a99a4e14610195578063da58c7d9146101b3578063eaf294b0146101e45761009e565b80630f1238fe146100a3578063217d1295146100bf57806326dace45146100db578063856ebb06146100f95780638fc53e2f14610129575b600080fd5b6100bd60048036038101906100b89190610925565b610215565b005b6100d960048036038101906100d49190610988565b6103c5565b005b6100e361057f565b6040516100f091906109c4565b60405180910390f35b610113600480360381019061010e9190610988565b61058b565b6040516101209190610a6f565b60405180910390f35b610143600480360381019061013e9190610988565b610637565b60405161015091906109c4565b60405180910390f35b61016161064f565b60405161016e91906109c4565b60405180910390f35b61017f61065c565b60405161018c9190610a6f565b60405180910390f35b61019d610814565b6040516101aa9190610aa0565b60405180910390f35b6101cd60048036038101906101c89190610988565b61083a565b6040516101db929190610ad6565b60405180910390f35b6101fe60048036038101906101f99190610925565b610884565b60405161020c929190610ad6565b60405180910390f35b600160009054906101000a900473ffffffffffffffffffffffffffffffffffffffff1673ffffffffffffffffffffffffffffffffffffffff163373ffffffffffffffffffffffffffffffffffffffff16146102a5576040517f08c379a000000000000000000000000000000000000000000000000000000000815260040161029c90610b71565b60405180910390fd5b6001600360008373ffffffffffffffffffffffffffffffffffffffff1673ffffffffffffffffffffffffffffffffffffffff16815260200190815260200160002060000160016101000a81548160ff0219169083151502179055506004600360008373ffffffffffffffffffffffffffffffffffffffff1673ffffffffffffffffffffffffffffffffffffffff168152602001908152602001600020908060018154018082558091505060019003906000526020600020016000909190919091506000820160009054906101000a900460ff168160000160006101000a81548160ff0219169083151502179055506000820160019054906101000a900460ff168160000160016101000a81548160ff021916908315150217905550505050565b600360003373ffffffffffffffffffffffffffffffffffffffff1673ffffffffffffffffffffffffffffffffffffffff16815260200190815260200160002060000160019054906101000a900460ff16610454576040517f08c379a000000000000000000000000000000000000000000000000000000000815260040161044b90610c29565b60405180910390fd5b60001515600360003373ffffffffffffffffffffffffffffffffffffffff1673ffffffffffffffffffffffffffffffffffffffff16815260200190815260200160002060000160009054906101000a900460ff161515146104ea576040517f08c379a00000000000000000000000000000000000000000000000000000000081526004016104e190610c95565b60405180910390fd5b6001600360003373ffffffffffffffffffffffffffffffffffffffff1673ffffffffffffffffffffffffffffffffffffffff16815260200190815260200160002060000160006101000a81548160ff021916908315150217905550600160026000838152602001908152602001600020546105659190610ce4565b600260008381526020019081526020016000208190555050565b60008080549050905090565b6000818154811061059b57600080fd5b9060005260206000200160009150905080546105b690610d47565b80601f01602080910402602001604051908101604052809291908181526020018280546105e290610d47565b801561062f5780601f106106045761010080835404028352916020019161062f565b820191906000526020600020905b81548152906001019060200180831161061257829003601f168201915b505050505081565b60026020528060005260406000206000915090505481565b6000600480549050905090565b606060008080600090505b6000805490508110156106bc5782600260008381526020019081526020016000205411156106a957600260008281526020019081526020016000205492508091505b80806106b490610d78565b915050610667565b60008091505b60008054905082101561071c5782821461070957600260008481526020019081526020016000205460026000848152602001908152602001600020540361070857600190505b5b818061071490610d78565b9250506106c2565b8015610763576040518060400160405280601481526020017f4e6f6e65206f66207468652073656e61746f7273000000000000000000000000815250945050505050610811565b6000838154811061077757610776610dc0565b5b90600052602060002001805461078c90610d47565b80601f01602080910402602001604051908101604052809291908181526020018280546107b890610d47565b80156108055780601f106107da57610100808354040283529160200191610805565b820191906000526020600020905b8154815290600101906020018083116107e857829003601f168201915b50505050509450505050505b90565b600160009054906101000a900473ffffffffffffffffffffffffffffffffffffffff1681565b6004818154811061084a57600080fd5b906000526020600020016000915090508060000160009054906101000a900460ff16908060000160019054906101000a900460ff16905082565b60036020528060005260406000206000915090508060000160009054906101000a900460ff16908060000160019054906101000a900460ff16905082565b600080fd5b600073ffffffffffffffffffffffffffffffffffffffff82169050919050565b60006108f2826108c7565b9050919050565b610902816108e7565b811461090d57600080fd5b50565b60008135905061091f816108f9565b92915050565b60006020828403121561093b5761093a6108c2565b5b600061094984828501610910565b91505092915050565b6000819050919050565b61096581610952565b811461097057600080fd5b50565b6000813590506109828161095c565b92915050565b60006020828403121561099e5761099d6108c2565b5b60006109ac84828501610973565b91505092915050565b6109be81610952565b82525050565b60006020820190506109d960008301846109b5565b92915050565b600081519050919050565b600082825260208201905092915050565b60005b83811015610a195780820151818401526020810190506109fe565b60008484015250505050565b6000601f19601f8301169050919050565b6000610a41826109df565b610a4b81856109ea565b9350610a5b8185602086016109fb565b610a6481610a25565b840191505092915050565b60006020820190508181036000830152610a898184610a36565b905092915050565b610a9a816108e7565b82525050565b6000602082019050610ab56000830184610a91565b92915050565b60008115159050919050565b610ad081610abb565b82525050565b6000604082019050610aeb6000830185610ac7565b610af86020830184610ac7565b9392505050565b7f4f6e6c79204f776e6572206f66207468697320444150502063616e2063686f6f60008201527f736520566f746572730000000000000000000000000000000000000000000000602082015250565b6000610b5b6029836109ea565b9150610b6682610aff565b604082019050919050565b60006020820190508181036000830152610b8a81610b4e565b9050919050565b7f596f7520617265206e6f7420696e20746865206c697374206f6620766f74657260008201527f732e20536f20796f7520686176656e2774207065726d697373696f6e20746f2060208201527f766f74652e000000000000000000000000000000000000000000000000000000604082015250565b6000610c136045836109ea565b9150610c1e82610b91565b606082019050919050565b60006020820190508181036000830152610c4281610c06565b9050919050565b7f596f7520616c726561647920566f746564000000000000000000000000000000600082015250565b6000610c7f6011836109ea565b9150610c8a82610c49565b602082019050919050565b60006020820190508181036000830152610cae81610c72565b9050919050565b7f4e487b7100000000000000000000000000000000000000000000000000000000600052601160045260246000fd5b6000610cef82610952565b9150610cfa83610952565b9250828201905080821115610d1257610d11610cb5565b5b92915050565b7f4e487b7100000000000000000000000000000000000000000000000000000000600052602260045260246000fd5b60006002820490506001821680610d5f57607f821691505b602082108103610d7257610d71610d18565b5b50919050565b6000610d8382610952565b91507fffffffffffffffffffffffffffffffffffffffffffffffffffffffffffffffff8203610db557610db4610cb5565b5b600182019050919050565b7f4e487b7100000000000000000000000000000000000000000000000000000000600052603260045260246000fdfea26469706673582212201b1adeb078f325d8ac52d7bdbaa9e667dafcd3baffde9190fb2d965aba0c041764736f6c63430008110033",
  "linkReferences": {},
  "deployedLinkReferences": {}
}